:020000040800F2
:10000000F84F00205D020008092E0008EB140008DC
:10001000052E0008B5100008413A00080000000055
:10002000000000000000000000000000A9330008EC
:10003000F510000800000000992E0008993400080F
:1000400077020008770200087702000877020008AC
:10005000770200087702000877020008770200089C
:10006000770200087702000877020008770200088C
:10007000770200087702000877020008770200087C
:10008000770200087702000877020008770200086C
:10009000770200087702000877020008CD110008F7
:1000A000713500087702000877020008770200081F
:1000B000153600087702000877020008770200086A
:1000C000770200087702000877020008770200082C
:1000D0007702000877020008A736000877020008B8
:1000E000770200081532000877020008770200083E
:1000F00077020008770200087702000877020008FC
:1001000077020008AD320008770200087702000885
:1001100077020008770200087702000877020008DB
:10012000770200087702000877020008B91000087B
:1001300077020008F910000877020008770200082B
:1001400077020008770200087702000877020008AB
:10015000770200087702000877020008770200089B
:10016000770200087702000877020008770200088B
:10017000770200087702000877020008770200087B
:10018000770200087702000800F002F800F04FF84C
:100190000AA090E8000C82448344AAF10107DA45E2
:1001A00001D100F044F8AFF2090EBAE80F0013F0E5
:1001B000010F18BFFB1A43F001031847147A00001F
:1001C000347A0000103A24BF78C878C1FAD85207B0
:1001D00024BF30C830C144BF04680C6070470000C1
:1001E0000023002400250026103A28BF78C1FBD840
:1001F000520728BF30C148BF0B607047642900F028
:10020000AB80782900F0E480732900F0A3820020FD
:1002100070471FB504F0BEF89DE8030000F03AFDFA
:1002200000F006FB1FBD10B500F06BFB10BD00F029
:10023000F5FB1146FFF7EDFF04F036F800F0FAFC8D
:1002400003B4FFF7F0FF03BC00F096FEEFF310805D
:1002500072B6704780F310887047000009488047E5
:1002600009480047FEE7FEE7FEE7FEE7FEE7FEE798
:10027000FEE7FEE7FEE7FEE704480549054A064BB0
:10028000704700000935000889010008F84900207E
:10029000F84F0020F84B0020F84B00200FB4044921
:1002A00010B503AA029800F059FA10BC5DF814FBCF
:1002B000EC48002070B5044685690068C10601D588
:1002C000302600E02026C00708D070BDD4E9012107
:1002D00030469047206A00F1010020626D1EF5D57E
:1002E00070BD70B5044685690078C00708D170BD3F
:1002F000D4E9012120209047206A00F1010020620A
:100300006D1EF5D570BD70B50C460546012A05D0A9
:100310002878800600D5EA69002302E0012305E081
:100320005B1C934202D2E05C0028F9D1A869E61870
:10033000C01AA861286A184428622846FFF7BAFF45
:1003400004E0D5E9012114F8010B9047B442F8D339
:100350002846FFF7C6FF70BD2DE9F0410646002490
:1003600010687529314616A511D0AFF3008000281A
:1003700003DAC0F1000013A507E031688A0701D550
:1003800011A502E0490704D510A5012401E0AFF34F
:10039000008000210A2306F1240707E0B0FBF3F2F6
:1003A00003FB1200303078541046491C0028F5D168
:1003B00023462A463046BDE8F04100F044B900002B
:1003C000000000002D0000002B00000020000000B5
:1003D00070B504460D4621461068AFF300802188B1
:1003E000090502D5104A7A4402E00F4A7A440E32D7
:1003F000002104F1240307E000F00F064FEA10107B
:10040000965D5E5401F101010028F5D10346207884
:10041000000704D5702D02D009B111320223204605
:10042000BDE8704000F00FB9A07700002DE9F05F43
:10043000894604464FF0000ADFF828B1FB44C0F8B3
:1004400020A02046E168884700287CD0252806D0D7
:10045000D4E901219047206A401C2062F1E7002581
:100460005F462046E16888472028064608DB312E93
:1004700006D207EB060010F8200C08B10543F0E7A0
:10048000A80701D525F00405C4F81CA00027C4F86E
:1004900018A02A2E09D0304603F061FB38B304EBD4
:1004A0008708303EC8F8186019E059F8041B204648
:1004B00004EB87029161E1688847012F064618D155
:1004C000E069002820DA25F020051DE0D8F81800A2
:1004D00000EB800006EB40003038C8F818002046DA
:1004E000E1688847064603F03AFB0028EED1012F69
:1004F0000AD02E2E08D12046E16888477F1C064688
:10050000022F45F02005C4DBA069002803DA404231
:1005100045F00105A061E80701D025F0100596B16E
:10052000A6F14100192802D8203645F400654A4654
:100530003146204625604D46FFF760FE60B1012838
:1005400007D0ED1D00E009E025F0070000F10809E3
:1005500077E705F1040974E7304679E7206ABDE8DA
:10056000F09F00007277000010B5431C02E010F805
:10057000011B71B18107FAD14FF0013202C88C1A08
:100580008C4314EAC211F9D0C01A0A0603D0C01E67
:1005900010BDC01A10BD0A0401D0801E10BD090292
:1005A000FCD0401E10BD032A40F2308010F0030C36
:1005B00000F0158011F8013BBCF1020F624498BFB6
:1005C00011F801CB00F8013B38BF11F8013BA2F153
:1005D000040298BF00F801CB38BF00F8013B11F0CE
:1005E000030300F0CD80083AC0F0088051F8043BC6
:1005F000083A51F804CBA0E80810F5E7121D5CBFDB
:1006000051F8043B40F8043BAFF30080D20724BF0D
:1006100011F8013B11F801CB48BF11F8012B24BFA1
:1006200000F8013B00F801CB48BF00F8012B7047F0
:1006300002F0FF0343EA032242EA024200F0D4B888
:100640007047704770472DE9F0470D46994692462E
:10065000044600F124080168880604D5E06921F009
:100660001001216000E00120A84202DDA0EB050797
:1006700000E00027A16907EB050202EB0900A1EBEE
:100680000000A0612078C00602D42046FFF712FEC9
:10069000002608E0D4E901211AF806009047206AF4
:1006A000401C761C20624E45F4DB2078C0060AD53B
:1006B0002046FFF7FFFD06E0D4E9012130209047F6
:1006C000206A401C2062381EA7F10107F4DC07E015
:1006D000D4E9012118F805009047206A401C2062E7
:1006E000281EA5F10105F3DC2046FFF7FAFD20786E
:1006F000000602D50220BDE8F0870120FBE70000DC
:1007000001694A1C02610878704700B58FB0CDE9D5
:1007100001310021059105497944CDE903101146C5
:100720006846FFF783FE0FB000BD0000E5FFFFFF46
:1007300010B5436913B1AFF3008001E0FFF7E3FDAB
:10074000012010BD127800F124010A7000224A70C5
:100750000122EDE711684FF0FF32E9E7074B70B572
:100760000D467B44FFF7D1FF0446284600F05CF8B5
:1007700010B14FF0FF3070BD204670BDBB3A000095
:1007800010B5203AC0F00B80B1E81850203AA0E82C
:100790001850B1E81850A0E81850BFF4F5AF5FEA60
:1007A000027C24BFB1E81850A0E8185044BF18C913
:1007B00018C0BDE810405FEA827C24BF51F8043BBA
:1007C00040F8043B08BF7047D20728BF31F8023B0E
:1007D00048BF11F8012B28BF20F8023B48BF00F8A2
:1007E000012B70474FF000020429C0F0128010F076
:1007F000030C00F0BB80CCF1040CBCF1020F18BF5D
:1008000000F8012BA8BF20F8022BA1EB0C0100F08F
:10081000ADB85FEAC17C24BF00F8012B00F8012BC2
:1008200048BF00F8012B7047007B00F08000704744
:1008300010B54248542100F097F84148542100F087
:1008400093F84048542100F08FF83F493B483C4A18
:100850003F4B08603D490A603A491960531C0365E3
:10086000481C1065012008653B48344A39A178448A
:1008700000F044F920B9384878440A3800F0E0F92B
:1008800037482F4A35A1784400F038F920B9344868
:1008900078440A3800F0D4F932482A4A2FA1784423
:1008A00000F02CF920B92F4878440A3800F0C8F934
:1008B00040232248DC000021224600F0FBF820B152
:1008C00025487844543800F0BBF91D48224640239F
:1008D000002100F0EFF820B121487844543800F0AE
:1008E000AFF9184822461023002100F0E3F8002851
:1008F00006D01C487844BDE81040563800F0A0B936
:1009000010BD104870B5006D20F001040B4800F0D8
:100910006BF90B4800F068F90A4800F065F909E046
:10092000206D20F00105204600F05EF9204600F021
:100930009AF82C46002CF3D170BD00009848002096
:10094000EC4800204049002084000020880000205E
:100950008C0000207200000051730000770000003E
:100960003D730000297300004FF0000200B51346EC
:1009700094469646203922BFA0E80C50A0E80C50BF
:10098000B1F12001BFF4F7AF090728BFA0E80C5070
:1009900048BF0CC05DF804EB890028BF40F8042B69
:1009A00008BF704748BF20F8022B11F0804F18BFD6
:1009B00000F8012B70470EB5CDE90001FFF7D4FD1B
:1009C000029069460120ABBE0EBD08B56946009095
:1009D0000220ABBE08BD1FB58DE8070069460520A3
:1009E000ABBE04B010BD1FB58DE80F0069460620F0
:1009F000ABBEF6E708B5694600900920ABBE08BD5E
:100A00001CB5CDE9000169460A20ABBE1CBD70478C
:100A100008B5694600900C20ABBE08BD754600F0D5
:100A200017F9AE4605006946534620F00700854693
:100A300018B020B5FFF720FCBDE820404FF00006BD
:100A40004FF000074FF000084FF0000B21F00701B6
:100A5000AC46ACE8C009ACE8C009ACE8C009ACE8F9
:100A6000C0098D46704770B50446051F00F0F6F8C2
:100A70000068002C14BF446870BD002C18BFAC4245
:100A80003CBF20466468F8D301680A18AA4218BF20
:100A9000456003D12A680546114401602868411960
:100AA000A1421CBF6C6070BD616869602168084428
:100AB000286070BD70B5C468A50713D0650211D455
:100AC000B2F5807F09D0B2F5007F06D0B2F5806F15
:100AD00008D1012300F1240106E05D1E6FF07F467E
:100AE000B54201D3012070BD0161C361416024F4AE
:100AF00070611143C160002070BD00002DE9F0411C
:100B00000C4607461646104600F06EF82078611C29
:100B100061280AD0722802D077283CD102E0012552
:100B2000002405E00225042402E0082448F202051E
:100B300011F8010B2B2806D0622809D011F8010CFE
:100B400074280AD00BE045F0030544F00204EFE7F7
:100B500045F0040544F00104EAE744F01004384687
:100B60002146FFF728FF411C15D00021316171603B
:100B70004FF40071F560F1617061200704D53046D3
:100B80000222002100F0E4F8306D40F001003065F1
:100B90003046BDE8F0810020FBE72DE9F0410D462D
:100BA0000646104C206DC10704D0410804D020F047
:100BB0000104F7E722460EE0542000F09AF80700FF
:100BC0000ED0206D47F001010843542120653846BE
:100BD000FFF7CAFE3A4629463046BDE8F0418DE7A8
:100BE0000020D6E7984800202DE9F04704464FF052
:100BF00000094FF0FF37C568D4E90486A80707D07D
:100C0000204600F055F93046FFF7DFFE002802DAF3
:100C10003846BDE8F087280502D54046FFF723FF98
:100C20004C212046FFF7A0FE206D20F0010020653A
:100C30004846EEE70446AFF300802046FFF700FB8E
:100C400010B500F07FF9BDE8104000F075B9000064
:100C500000487047944900207047000000487047E2
:100C60009C490020704770477047704738B504466C
:100C70000A4600206946AFF30080002808BF38BD4F
:100C800002460099204600F084F9012038BD012079
:100C900000F0D5B9F8B5AFF30080054600200C464A
:100CA000102000BF0646A819A0420DD93246694659
:100CB0000020AFF30080070008BF00F0C0F90098E3
:100CC000A04218BF0546C419FFF7C8FF05600746D4
:100CD000F01D20F007004619284600F053F9B442F1
:100CE00008BFF8BDA21B31463868BDE8F84000F0E7
:100CF00050B970B50646FFF7B1FF056806F10B0065
:100D000020F00704B4429CBF002070BD2B466A68E7
:100D1000BAB11068A04210D304F1080188423CBF68
:100D20005068586007D35168101941601168091B59
:100D3000016058601460101D70BD13465268002A8F
:100D4000E7D121462846FFF791FF0028DED170BD8C
:100D50002DE9F041044616460D464769007B8007A1
:100D60002ED03846FFF746FE50BB3EB3012E02D0D0
:100D7000022E25D104E0204600F025F905441DE0AF
:100D80003846FFF745FEE168002841F01001E160B8
:100D900005DA204600F058F80120BDE8F081C903CB
:100DA0000BD56268E16A914200D81146A2691144EC
:100DB0002269891A814200DD08460544002D01DAC6
:100DC0000220EAE7E16A6068E268814206D29103A4
:100DD000E06203D522F4003141F01002A669002739
:100DE000AE4213DCE16A814201D90B4600E00346C2
:100DF00003EB060C2369ACEB030CAC4506DD81422A
:100E000001D98C4600E084469C4505D1A760276047
:100E100042F02000A5620DE0AD1BE669AE1B8142E9
:100E2000A66000D90846C01A281A206058196060C8
:100E300022F0200003490840E060002084F8487058
:100E4000ABE70000BFCFD7FFC16821F4001141F02C
:100E50008001C16000218160016070472DE9F04789
:100E6000814614460E464FF0FF383248D568576920
:100E7000054209D03846A169FFF7C2FD002811DB01
:100E80002C48C0430540E5602B463246494638466B
:100E9000FFF7A1FDA16920F00042B21A1144002819
:100EA000A16103D02046FFF7CFFF4046BDE8F087A1
:100EB00070B504460569C06A6168884200D8084672
:100EC000E16821F42011E160C90312D5A84208D0DD
:100ED0002246411B2846FFF7C1FF10B14FF0FF30FB
:100EE00070BD0020E562C4E90150E06820F4803064
:100EF000E060002070BD10B50446C06820F02000FE
:100F0000E060A16AA06988420DD02046FFF7D0FFBB
:100F1000E06820F4405040F01000E060A06AA0615A
:100F20002069E062606044F24001E0688843E0606C
:100F300010BD000010000200002801D000F01CB815
:100F40007047000010B5014602A000F05FF80120D4
:100F500010BD000053494752545245443A2052654F
:100F60006469726563743A2063616E2774206F70E0
:100F7000656E3A200000000001491820ABBEFEE774
:100F80002600020000210160C0E901107047102016
:100F90007047034640688C46002818BF88423CBF13
:100FA00003464068F8D318681844884207D00CF10B
:100FB000030020F00700001D411A521A0146081DC7
:100FC0000A60FFF750BD10B50146C268900703D014
:100FD000900607D5886A0BE000F040F80121016017
:100FE000881E10BD8B69486818440B69A0EB03008C
:100FF00091F8483023B191F84910A0EB010010BDE1
:101000001103FCD50028FADD401E10BD70B5054661
:101010000C460A2000E06D1C00F018F835B1287865
:101020000028F8D102E0641C00F010F814B1207818
:101030000028F8D1BDE870400A2000F007B810B5CC
:1010400000F010F8BDE81040FFF776BF08B569461C
:101050008DF800000320ABBE08BD000000487047BB
:101060009449002010B5012805D0002103A0FFF706
:10107000CDFF012010BD09A1F8E7000053494752F8
:10108000544D454D3A204F7574206F662068656158
:1010900070206D656D6F7279000000003A20486520
:1010A0006170206D656D6F727920636F72727570FB
:1010B0007465640000BFFEE710B502F00BF910BDC7
:1010C0000246094B9A4201D2084801E0064810380E
:1010D00011F0005F03D0064B0B40C36002E0044BED
:1010E0000B408360704700001064024000600240C3
:1010F0007D0F7D0F704700002DE9F0412F480478E7
:1011000000BF2F4800EB0410006849F21A010842A2
:1011100000D030E02A4800EB0410006800F4407072
:10112000B0F5407F00D026E0254800EB04100068B1
:10113000C0F30D40051F40F2EA50854200D91AE085
:1011400045F0004002F012FD06469EB11C4800EB3F
:101150000410806820F0030706F10408E81C8508E5
:1011600003E001CF48F8040B6D1E002DF9D1304685
:1011700003F0CEF800BF4FF00040114901EB04111D
:101180000860601C0446042800D100240C4800EBD1
:101190000410006810F0004FB3D008490C700948E3
:1011A000406910F0800F04D080200649486100207B
:1011B0008860054803494861BDE8F081820000204D
:1011C000A4230020009002404080010070B5402020
:1011D00000F066F8002842D0152003F0ADF8044670
:1011E00014F0040F38D0002508E0012003F0A4F823
:1011F000044614F0040F00D002E06D1C0A2DF4D355
:1012000000BF14F0040F13D015A10122194B1A705E
:1012100000200AE00A5C184B9A8000BF164A128828
:1012200012F0400FFAD0421CD0B21328F2D313E0D0
:1012300012A100220F4B1A7000200AE00A5C0E4B2C
:101240009A8000BF0C4A128812F0400FFAD0421C5C
:10125000D0B21628F2D300BF402000F01BF870BDBA
:101260004554485F4C494E4B20436F6E6E65637426
:101270000D0A000080000020001001404554485F26
:101280004C494E4B20446973636F6E6E6563740DF9
:101290000A0000000149086070470000143C01404A
:1012A00001460020034A12680A4201D0012000E0F2
:1012B00000207047143C014051B14FF0204252F8D9
:1012C000202042F001024FF0204343F8202009E0A3
:1012D0004FF0204252F82020034B1A404FF0204399
:1012E00043F8202070470000FEFF0F0070B500217A
:1012F000002200234FF02045046855F82410414C8B
:101300002140D0E901452C43C5682C4305692C4395
:1013100045692C4385692C43C5692C43056A2C43D8
:10132000456A2C43856A2C43C56A2C43056B2C43C4
:1013300021434FF02045046845F824108468082CA8
:1013400009D1046855F8244044F040044FF0204689
:10135000056846F825400468641C4FF0204555F8A0
:10136000242002F04042446B2468456B6D6844EAD7
:101370000514456BAD6844EA0524456BAD8944EA24
:101380000544456B2D8A44EA0554456B2D7D44EA9E
:101390000564456BAD692C4322430468641C4FF01F
:1013A000204545F82420C46AB4F5804F20D1046854
:1013B00005EB8404D4F80431134C2340846B246877
:1013C000856B6D6844EA0514856BAD6844EA0524B5
:1013D000856BAD8944EA0544856BAD692C43234395
:1013E0004FF02045046805EB8404C4F8043108E09C
:1013F0006FF070444FF02046056806EB8505C5F890
:10140000044170BD8000F7FF0000F0CFF0B50A4640
:1014100000210023002400BF3DE0012505FA01F36F
:10142000156805EA03049C4234D105684F00032681
:10143000BE40B543056015794E00B540066835439A
:1014400005601579012D02D01579022D16D1856818
:101450004F000326BE40B543856055794E00B54028
:10146000866835438560456801268E40B5434560F2
:10147000456896798E40B6B235434560C5684F00E1
:101480000326BE40B543C560D5794E00B540C66859
:101490003543C560491C1029BFD3F0BDF0B500230A
:1014A00000244D07ED0E02FA05F3CE1000F12005E1
:1014B00055F826504E07F70E0F26BE40B543CF1005
:1014C00000F1200646F82750CE1000F1200555F80F
:1014D000265045EA0304CE1000F1200545F82640C9
:1014E000F0BD418370470183704700BFFEE710B530
:1014F000012002F077FC0121002001F075FC05209D
:1015000002F070FC55214FF4704001F06DFCAA21EF
:101510004FF2010001F068FC52214FF2020001F08D
:1015200063FC08214FF2030001F05EFC01214FF241
:10153000040001F059FC0D214FF4304001F054FC3F
:101540000D214BF2010001F04FFC0D214BF2020086
:1015500001F04AFC34214FF4364001F045FC3421BF
:101560004BF2016001F040FC34214BF2026001F0CB
:101570003BFC0D214FF4314001F036FC0D214BF2C4
:10158000011001F031FC0D214BF2021001F02CFC96
:1015900034214FF4374001F027FC34214BF2017025
:1015A00001F022FC34214BF2027001F01DFC0021FD
:1015B0004FF4324001F018FC00214BF2012001F001
:1015C00013FC00214BF2022001F00EFC24214FF409
:1015D000384001F009FC24214BF6010001F004FC25
:1015E00024214BF6020001F0FFFB01214FF43F40A4
:1015F00001F0FAFB0F214FF4334001F0F5FB0F210E
:101600004BF2013001F0F0FB0F214BF2023001F000
:10161000EBFB34214FF4394001F0E6FB34214BF66B
:10162000011001F0E1FB34214BF6021001F0DCFB6C
:1016300008214FF4354001F0D7FB08214BF201504F
:1016400001F0D2FB08214BF2025001F0CDFB032147
:101650004FF4424001F0C8FB24214FF43A4001F01E
:10166000C3FB24214BF6012001F0BEFB24214BF6E5
:10167000022001F0B9FB00214FF43C4001F0B4FB23
:1016800078214BF6014001F0AFFB00214BF6024000
:1016900001F0AAFB00214FF43D4001F0A5FB7821A9
:1016A0004BF6015001F0A0FB00214BF6025001F077
:1016B0009BFB00214FF43E4001F096FB64214BF66A
:1016C000016001F091FB00214FF4514001F08CFBCF
:1016D00033214DF2011001F087FB00214DF2021081
:1016E00001F082FB34214DF2031001F07DFB00215B
:1016F0004DF2041001F078FB3A214DF2051001F093
:1017000073FB00214DF2061001F06EFB4A214DF2F1
:10171000071001F069FB00214DF2081001F064FB95
:101720005C214DF2091001F05FFB00214DF20A101F
:1017300001F05AFB81214DF20B1001F055FB002105
:101740004DF20C1001F050FBA6214DF20D1001F0EE
:101750004BFB00214DF20E1001F046FBE5214DF24E
:101760000F1001F041FB01214DF2101001F03CFB84
:1017700013214DF2111001F037FB01214DF212102F
:1017800001F032FB54214DF2131001F02DFB012129
:101790004DF2141001F028FB82214DF2151001F0DA
:1017A00023FB01214DF2161001F01EFBCA214DF260
:1017B000171001F019FB02214DF2181001F014FB73
:1017C00000214DF2191001F00FFB02214DF21A1009
:1017D00001F00AFB01214DF21B1001F005FB022173
:1017E0004DF21C1001F000FB34214DF21D1001F0F0
:1017F000FBFA02214DF21E1001F0F6FA67214DF2BC
:101800001F1001F0F1FA02214DF2201001F0ECFA64
:1018100084214DF2211001F0E7FA02214DF222104D
:1018200001F0E2FAA4214DF2231001F0DDFA0221C9
:101830004DF2241001F0D8FAB7214DF2251001F035
:10184000D3FA02214DF2261001F0CEFACF214DF24B
:10185000271001F0C9FA02214DF2281001F0C4FA54
:10186000DE214DF2291001F0BFFA02214DF22A10BB
:1018700001F0BAFAF2214DF22B1001F0B5FA022173
:101880004DF22C1001F0B0FAFE214DF22D1001F0B6
:10189000ABFA03214DF22E1001F0A6FA10214DF201
:1018A0002F1001F0A1FA03214DF2301001F09CFA43
:1018B00033214DF2311001F097FA03214DF232102D
:1018C00001F092FA6D214DF2331001F08DFA0021F2
:1018D0004FF4524001F088FA33214DF2012001F01B
:1018E00083FA00214DF2022001F07EFA34214DF2FC
:1018F000032001F079FA00214DF2042001F074FA7E
:101900003A214DF2052001F06FFA00214DF2062038
:1019100001F06AFA4A214DF2072001F065FA002130
:101920004DF2082001F060FA5C214DF2092001F02F
:101930005BFA00214DF20A2001F056FA81214DF2A6
:101940000B2001F051FA00214DF20C2001F04CFA6D
:10195000A6214DF20D2001F047FA00214DF20E2094
:1019600001F042FAE5214DF20F2001F03DFA01218C
:101970004DF2102001F038FA13214DF2112001F040
:1019800033FA01214DF2122001F02EFA54214DF2CA
:10199000132001F029FA01214DF2142001F024FA5C
:1019A00082214DF2152001F01FFA01214DF216207F
:1019B00001F01AFACA214DF2172001F015FA02219E
:1019C0004DF2182001F010FA00214DF2192001F01B
:1019D0000BFA02214DF21A2001F006FA01214DF214
:1019E0001B2001F001FA02214DF21C2001F0FCF94C
:1019F00034214DF21D2001F0F7F902214DF21E2095
:101A000001F0F2F967214DF21F2001F0EDF90221FA
:101A10004DF2202001F0E8F984214DF2212001F05F
:101A2000E3F902214DF2222001F0DEF9A4214DF26A
:101A3000232001F0D9F902214DF2242001F0D4F93C
:101A4000B7214DF2252001F0CFF902214DF22620D9
:101A500001F0CAF9CF214DF2272001F0C5F902218A
:101A60004DF2282001F0C0F9DE214DF2292001F0CD
:101A7000BBF902214DF22A2001F0B6F9F2214DF214
:101A80002B2001F0B1F902214DF22C2001F0ACF92C
:101A9000FE214DF22D2001F0A7F903214DF22E2059
:101AA00001F0A2F910214DF22F2001F09DF9032140
:101AB0004DF2302001F098F933214DF2312001F040
:101AC00093F903214DF2322001F08EF96D214DF290
:101AD000332001F089F900214FF4534001F084F9DB
:101AE00033214DF2013001F07FF900214DF2023037
:101AF00001F07AF934214DF2033001F075F900213B
:101B00004DF2043001F070F93A214DF2053001F048
:101B10006BF900214DF2063001F066F94A214DF2D1
:101B2000073001F061F900214DF2083001F05CF955
:101B30005C214DF2093001F057F900214DF20A30D5
:101B400001F052F981214DF20B3001F04DF90021E5
:101B50004DF20C3001F048F9A6214DF20D3001F0A4
:101B600043F900214DF20E3001F03EF9E5214DF22E
:101B70000F3001F039F901214DF2103001F034F944
:101B800013214DF2113001F02FF901214DF21230E5
:101B900001F02AF954214DF2133001F025F9012109
:101BA0004DF2143001F020F982214DF2153001F090
:101BB0001BF901214DF2163001F016F9CA214DF240
:101BC000173001F011F902214DF2183001F00CF933
:101BD00000214DF2193001F007F902214DF21A30BF
:101BE00001F002F901214DF21B3001F0FDF8022154
:101BF0004DF21C3001F0F8F834214DF21D3001F0A7
:101C0000F3F802214DF21E3001F0EEF867214DF29B
:101C10001F3001F0E9F802214DF2203001F0E4F824
:101C200084214DF2213001F0DFF802214DF2223003
:101C300001F0DAF8A4214DF2233001F0D5F80221A9
:101C40004DF2243001F0D0F8B7214DF2253001F0EB
:101C5000CBF802214DF2263001F0C6F8CF214DF22B
:101C6000273001F0C1F802214DF2283001F0BCF814
:101C7000DE214DF2293001F0B7F802214DF22A3071
:101C800001F0B2F8F2214DF22B3001F0ADF8022153
:101C90004DF22C3001F0A8F8FE214DF22D3001F06C
:101CA000A3F803214DF22E3001F09EF810214DF2E1
:101CB0002F3001F099F803214DF2303001F094F803
:101CC00033214DF2313001F08FF803214DF23230E3
:101CD00001F08AF86D214DF2333001F085F80021D2
:101CE0004FF4544001F080F833214DF2014001F0EF
:101CF0007BF800214DF2024001F076F834214DF2DC
:101D0000034001F071F800214DF2044001F06CF83D
:101D10003A214DF2054001F067F800214DF20640EE
:101D200001F062F84A214DF2074001F05DF8002110
:101D30004DF2084001F058F85C214DF2094001F0E5
:101D400053F800214DF20A4001F04EF881214DF286
:101D50000B4001F049F800214DF20C4001F044F82D
:101D6000A6214DF20D4001F03FF800214DF20E404A
:101D700001F03AF8E5214DF20F4001F035F801216C
:101D80004DF2104001F030F813214DF2114001F0F6
:101D90002BF801214DF2124001F026F854214DF2AA
:101DA000134001F021F801214DF2144001F01CF81C
:101DB00082214DF2154001F017F801214DF2164035
:101DC00001F012F8CA214DF2174001F00DF802217E
:101DD0004DF2184001F008F800214DF2194001F0D1
:101DE00003F802214DF21A4000F0FEFF01214DF2EE
:101DF0001B4000F0F9FF02214DF21C4000F0F4FFFF
:101E000034214DF21D4000F0EFFF02214DF21E4043
:101E100000F0EAFF67214DF21F4000F0E5FF0221CC
:101E20004DF2204000F0E0FF84214DF2214000F00F
:101E3000DBFF02214DF2224000F0D6FFA4214DF23B
:101E4000234000F0D1FF02214DF2244000F0CCFFEE
:101E5000B7214DF2254000F0C7FF02214DF2264088
:101E600000F0C2FFCF214DF2274000F0BDFF02215C
:101E70004DF2284000F0B8FFDE214DF2294000F07D
:101E8000B3FF02214DF22A4000F0AEFFF2214DF2E5
:101E90002B4000F0A9FF02214DF22C4000F0A4FFDE
:101EA000FE214DF22D4000F09FFF03214DF22E4008
:101EB00000F09AFF10214DF22F4000F095FF032112
:101EC0004DF2304000F090FF33214DF2314000F0F0
:101ED0008BFF03214DF2324000F086FF6D214DF261
:101EE000334000F081FF00214FF4554000F07CFFAB
:101EF00033214DF2015000F077FF00214DF20250E6
:101F000000F072FF34214DF2035000F06DFF00210C
:101F10004DF2045000F068FF3A214DF2055000F0F8
:101F200063FF00214DF2065000F05EFF4A214DF2A2
:101F3000075000F059FF00214DF2085000F054FF07
:101F40005C214DF2095000F04FFF00214DF20A5084
:101F500000F04AFF81214DF20B5000F045FF0021B7
:101F60004DF20C5000F040FFA6214DF20D5000F054
:101F70003BFF00214DF20E5000F036FFE5214DF2FF
:101F80000F5000F031FF01214DF2105000F02CFFF6
:101F900013214DF2115000F027FF01214DF2125094
:101FA00000F022FF54214DF2135000F01DFF0121DB
:101FB0004DF2145000F018FF82214DF2155000F040
:101FC00013FF01214DF2165000F00EFFCA214DF211
:101FD000175000F009FF02214DF2185000F004FFE5
:101FE00000214DF2195000F0FFFE02214DF21A506F
:101FF00000F0FAFE01214DF21B5000F0F5FE022127
:102000004DF21C5000F0F0FE34214DF21D5000F056
:10201000EBFE02214DF21E5000F0E6FE67214DF26C
:102020001F5000F0E1FE02214DF2205000F0DCFED6
:1020300084214DF2215000F0D7FE02214DF22250B2
:1020400000F0D2FEA4214DF2235000F0CDFE02217B
:102050004DF2245000F0C8FEB7214DF2255000F09B
:10206000C3FE02214DF2265000F0BEFECF214DF2FC
:10207000275000F0B9FE02214DF2285000F0B4FEC6
:10208000DE214DF2295000F0AFFE02214DF22A5020
:1020900000F0AAFEF2214DF22B5000F0A5FE022125
:1020A0004DF22C5000F0A0FEFE214DF22D5000F01C
:1020B0009BFE03214DF22E5000F096FE10214DF2B2
:1020C0002F5000F091FE03214DF2305000F08CFEB5
:1020D00033214DF2315000F087FE03214DF2325092
:1020E00000F082FE6D214DF2335000F07DFE0021A4
:1020F0004FF4564000F078FE33214DF2016000F0BD
:1021000073FE00214DF2026000F06EFE34214DF2AC
:10211000036000F069FE00214DF2046000F064FEEF
:102120003A214DF2056000F05FFE00214DF206609D
:1021300000F05AFE4A214DF2076000F055FE0021E2
:102140004DF2086000F050FE5C214DF2096000F095
:102150004BFE00214DF20A6000F046FE81214DF257
:102160000B6000F041FE00214DF20C6000F03CFEDF
:10217000A6214DF20D6000F037FE00214DF20E60F9
:1021800000F032FEE5214DF20F6000F02DFE01213E
:102190004DF2106000F028FE13214DF2116000F0A6
:1021A00023FE01214DF2126000F01EFE54214DF27B
:1021B000136000F019FE01214DF2146000F014FECE
:1021C00082214DF2156000F00FFE01214DF21660E4
:1021D00000F00AFECA214DF2176000F005FE022150
:1021E0004DF2186000F000FE00214DF2196000F081
:1021F000FBFD02214DF21A6000F0F6FD01214DF2C7
:102200001B6000F0F1FD02214DF21C6000F0ECFDBE
:1022100034214DF21D6000F0E7FD02214DF21E60F9
:1022200000F0E2FD67214DF21F6000F0DDFD0221AC
:102230004DF2206000F0D8FD84214DF2216000F0C5
:10224000D3FD02214DF2226000F0CEFDA4214DF21B
:10225000236000F0C9FD02214DF2246000F0C4FDAE
:10226000B7214DF2256000F0BFFD02214DF226603E
:1022700000F0BAFDCF214DF2276000F0B5FD02213C
:102280004DF2286000F0B0FDDE214DF2296000F033
:10229000ABFD02214DF22A6000F0A6FDF2214DF2C5
:1022A0002B6000F0A1FD02214DF22C6000F09CFD9E
:1022B000FE214DF22D6000F097FD03214DF22E60BE
:1022C00000F092FD10214DF22F6000F08DFD0321F2
:1022D0004DF2306000F088FD33214DF2316000F0A6
:1022E00083FD03214DF2326000F07EFD6D214DF241
:1022F000336000F079FD55214FF4704000F074FD1B
:10230000AA214FF2010000F06FFD52214FF20200AE
:1023100000F06AFD08214FF2030000F065FD002186
:102320004FF2040000F060FDCC214FF4314000F08A
:102330005BFD00214BF2011000F056FD05214FF42A
:10234000364000F051FD70214FF4374000F04CFD55
:1023500070214BF2017000F047FD01214FF438402D
:1023600000F042FD03214BF6010000F03DFD03218A
:102370004BF6020000F038FD03214BF6030000F09D
:1023800033FD02214FF43C4000F02EFD00214BF6BE
:10239000014000F029FD00214BF6024000F024FD31
:1023A000D0214FF4494000F01FFD02214CF60110EE
:1023B00000F01AFD50214CF6021000F015FD5021DE
:1023C0004CF6031000F010FD50214CF6041000F004
:1023D0000BFD00214FF4545000F006FD55214FF441
:1023E000685000F001FD4FF4885000F0F5FC7820B3
:1023F00001F01CFD4FF4245000F0EEFC10BD000075
:102400000348006808B9012070470020FCE700007D
:10241000100242420348006808B9012070470020BA
:10242000FCE700000C0242420348006808B90120A2
:1024300070470020FCE700000802424203480068A1
:10244000012800D170470020FCE700000002404254
:1024500070B5054605EB4500384901EB8004207A4C
:10246000062866D2DFE800F0030B162F4A5F2068CB
:10247000804718B101202072002060715CE0206864
:10248000804720B1022020720020607101E000200E
:10249000207251E02068804790B16079401C6071E3
:1024A0006079217988420DDBA07A01F095FEA07950
:1024B000002802DD0320207204E00520207201E0E4
:1024C0000020207238E020688047A0B16079401C6D
:1024D00060716079A17988420FDBE07A01F07CFEBF
:1024E000E079002804DD042020720020607104E0FF
:1024F0000520207201E0052020721DE02068804741
:1025000070B16079401C60716079E179884209DBC3
:10251000A07A01F061FE042020720020607101E0C9
:102520000520207208E0607A01F056FE002020723B
:1025300002E00020207200BF00BF70BD0023002019
:102540001CB50121112000F07FFD00208DF8040052
:1025500002208DF805008DF80700012000906946E3
:102560000F48FEF753FF00208DF8040001208DF87E
:10257000070002208DF805001020009069460948E8
:10258000FEF744FF0820009069460648FEF73EFF2C
:102590000420009069460348FEF738FF1CBD000088
:1025A00000000240001002400021294A9172D172BD
:1025B000002020E00A2100EB4002264B03EB8202C0
:1025C0001171C82100EB400203EB820291710021DE
:1025D00000EB400203EB82025171052100EB400247
:1025E00003EB8202D171002100EB400203EB820277
:1025F0001172411CC8B20428DCDB0121154A91721A
:10260000022151720321D172042212498A750522D6
:102610004A750622CA75072281F82220082281F80D
:102620002120092281F823200A2281F82E200B2262
:1026300081F82D200C2281F82F200749054A1160CE
:102640000649D16006499161064951627047000010
:102650003023002000230020012400081524000856
:10266000292400083D2400081CB50121022000F0A7
:10267000EBFC4FF40040009001208DF80400002096
:102680008DF8060002208DF8050001208DF8070066
:1026900069460248FEF7BAFE1CBD00000004024075
:1026A00070B5044600250021084600F068FA4FF492
:1026B000305000F091FB11490988104A528801FB03
:1026C00002F0C11700EB5171CE1000BF13E00C48AF
:1026D00004804FF0D840A0F88040A0F88040A0F8D7
:1026E0008040A0F88040A0F88040A0F88040A0F88A
:1026F000804005F10105B542E9D370BD54000020CA
:102700008000006C1CB501217A2000F09DFC4CF289
:102710003370009002208DF8040000208DF8060030
:1027200003208DF8050001208DF807006946504808
:10273000FEF76CFE4FF68070009002208DF80400CA
:1027400000208DF8060003208DF8050001208DF88B
:10275000070069464748FEF759FE4FF48050009045
:1027600002208DF8040000208DF8060003208DF86B
:10277000050001208DF8070069463F48FEF746FE38
:102780004FF48050009002208DF8040000208DF856
:10279000060003208DF8050001208DF8070069462A
:1027A0003648FEF733FE0C2200213148FEF776FE54
:1027B0000C2201212E48FEF771FE0C2204212C4828
:1027C000FEF76CFE0C2205212948FEF767FE0C225D
:1027D00008212748FEF762FE0C2209212448FEF753
:1027E0005DFE0C220A212248FEF758FE0C220E2123
:1027F0001F48FEF753FE0C220F211D48FEF74EFE28
:102800000C2207211B48FEF749FE0C22082119481B
:10281000FEF744FE0C2209211648FEF73FFE0C226B
:102820000A211448FEF73AFE0C220B211148FEF74C
:1028300035FE0C2211460F48FEF730FE0C220D210A
:102840000C48FEF72BFE0C220E210A48FEF726FE4E
:102850000C220F210748FEF721FE0C2211460648E4
:10286000FEF71CFE0C2211460448FEF717FE1CBDA5
:10287000000C024000100240001402400018024008
:102880002DE9FC4104460D4616461F4600200090E7
:102890003B46324629460190204600F002F8BDE84A
:1028A000FC812DE9F04F85B080468A4615461E46CC
:1028B0000E9F002002900190307830B1012808D09E
:1028C00002280AD0032810D10BE00C2001900290BE
:1028D0000BE010200190029007E018200190029078
:1028E00003E020200190029000BF00BF314628463F
:1028F00000F00BF904464FF00009A7420EDD0F98D7
:10290000022803D1381B1FFA80F907E00F9801282D
:1029100004D1381B00EBD071C1F34F09B9F1000F9E
:102920000DDDB08800900198504483B24A4651466C
:10293000404600F0A8F808EB09001FFA80F8A7420B
:102940000BDDB0880090019951448BB208EB040173
:1029500088B23A46514600F096F826E095F800B065
:10296000BBF1800F0CDA029800EBD071C1F3470184
:10297000039133465A465146404600F067F90FE04E
:10298000681C054600780490049800B910E0009691
:102990005A4651464046049B00F0B7F9029803900E
:1029A000039840441FFA80F86D1C28780028D5D180
:1029B00000BF05B0BDE8F08F00B59DB0012108460D
:1029C00000F052FB0F200790002008903C20099057
:1029D00000200A900B900C900D9003200090002096
:1029E0000190022002900020039004900590069030
:1029F00006200E9000200F901090102011900020C3
:102A0000129014901390159016904FF480501790D8
:102A1000002018904FF48040199000201A9007A8C9
:102A20001B90CDF870D00EA8FEF760FC01210620A7
:102A3000FEF742FC1DB000BD30B504460D464FF414
:102A4000285000F0C9F9201200F0BEF942F601202A
:102A500000F0C2F9E0B200F0B7F94FF42C5000F0EA
:102A6000BBF9281200F0B0F942F6013000F0B4F9D9
:102A7000E8B200F0A9F94FF4305000F0ADF910467B
:102A800000F0A2F930BD2DE9F04704460D46164688
:102A90001F46DDF82090301B401C83B2781B401C81
:102AA00082B22946204600F08AF82946204600F0E6
:102AB00066F84FF4305000F08FF9301B401C791B42
:102AC000491C00FB01FA4FF0000805E04FF0D84028
:102AD000A0F8809008F10108D045F7D3BDE8F08751
:102AE000014610200A7832B1012A06D0022A06D007
:102AF000032A08D105E00C2005E0102003E018208F
:102B000001E0202000BF00BF70472DE9F0430546DB
:102B10000C462B4600262BE01F78802F18DA2078F1
:102B200030B1012807D0022808D003280CD108E0D2
:102B30004FF006090BE04FF0080908E04FF00C09D0
:102B400005E04FF0100902E04FF0080900BF0BE06C
:102B5000581C034690F80080B8F1000F00D10AE03D
:102B60002046FFF7BDFF814606EB090086B25B1CDD
:102B700018780028D0D100BF3046BDE8F08310B5EA
:102B800002460C464FF4285000F026F9101200F0CF
:102B90001BF942F6012000F01FF9D0B200F014F941
:102BA0004FF42C5000F018F9201200F00DF942F605
:102BB000013000F011F9E0B200F006F910BD70B577
:102BC00005460C461E464FF4285000F005F9281221
:102BD00000F0FAF842F6012000F0FEF8284600F076
:102BE000F3F842F6022000F0F7F8A919491EC1F3E4
:102BF0000F2000F0E9F842F6032000F0EDF8A919E3
:102C0000491E88B200F0E0F84FF42C5000F0E4F8D0
:102C1000201200F0D9F842F6013000F0DDF820462D
:102C200000F0D2F842F6023000F0D6F8A118491EA2
:102C3000C1F30F2000F0C8F842F6033000F0CCF8E2
:102C4000A118491E88B200F0BFF870BD2DE9FF4FF2
:102C50008BB00D4691461C460A95207830B101286C
:102C600007D0022808D003280BD109E00C27B8466A
:102C700007E01027B84604E018274FF0240800E0CA
:102C800000BF00BFA9F1200000F0FF09217801AAD0
:102C9000484600F0D7FE002632E001A810F806A052
:102CA0004FF0000B26E01AF0800F05D0628829460D
:102CB0000B98FFF7C1FE09E0A088A0F519419939EA
:102CC00004D0A28829460B98FFF7B6FE4FEA4A6067
:102CD0004FEA106A681C85B20A98281AB84205D1D2
:102CE0000A9D0B98401C80B20B9006E00BF101008E
:102CF00000F0FF0BBBF1080FD5DB00BF701CC6B2A4
:102D00004645CADB0FB0BDE8F08F2DE9FF4F93B009
:102D100081460D46209CAB46207830B1012808D072
:102D200002280AD003280DD10BE00C274FF0180819
:102D300008E010274FF0200804E018274FF048085B
:102D400000E000BF00BF22786B46DDE9150100F00E
:102D5000ADFE002633E01DF8060012904FF0000A89
:102D600027E0129810F0800F05D062882946484667
:102D7000FFF762FE09E0A088A0F51941993904D057
:102D8000A28829464846FFF757FE12984006000ED3
:102D90001290681C85B2A5EB0B00B84205D15D46C8
:102DA00009F101001FFA80F906E00AF1010000F0C4
:102DB000FF0ABAF1080FD4DB00BF701CC6B246454B
:102DC000C9DB17B0BDE8F08F01B5BDF800000149BF
:102DD000088008BD8000006C01B5BDF800004FF010
:102DE000D841088008BD000003B5BDF800004FF0D1
:102DF000D8410880BDF80400014908800CBD0000DE
:102E00008000006C00BFFEE77047000070B5002135
:102E100000230F22C47824B3174C246804F4E06420
:102E2000C4F5E064C4F30721C1F10404E3B20A412C
:102E300044789C40E1B28478144021430C07210E71
:102E40000E4C05786155047804F01F050124AC4050
:102E500005786D114FF0E02606EB8505C5F80041B9
:102E600009E0047804F01F040125A540044C06780D
:102E7000761144F8265070BD0CED00E000E400E04F
:102E800080E100E002490143024A116070470000FE
:102E90000000FA050CED00E07047000070B5154821
:102EA0000468001D0568001D066823462A46314651
:102EB00011A0FDF7F3F91FA0FDF7F0F91E48FDF78B
:102EC000EDF91EA128A0FDF7E9F92DA12DA0FDF730
:102ED000E5F932A134A0FDF7E1F900230722012131
:102EE00037A0FDF7DBF946A0FDF7D8F946A0FDF7BE
:102EF000D5F970BD107AFF1F0D0A202043505520D0
:102F00003A2053544D3332463430375A4754362CD6
:102F1000204C5146503134342C20554944203D201A
:102F200025303858202530385820253038580A0D9B
:102F3000000000000A0D0000A043000856352D31A6
:102F40003036615F555342204D6173732053746F67
:102F500072616765C0FDB3CCA3A85344BFA8C4A3E6
:102F6000C4E255C5CCA3A9002A20E4BE8BE7A88BF8
:102F7000E5908DE7A7B02020203A2025730D0A00A8
:102F8000312E32002A20E4BE8BE7A88BE78988E641
:102F90009CAC2020203A2025730D0A0032303134B9
:102FA0002D30322D323800002A20E58F91E5B8838C
:102FB000E697A5E69C9F2020203A2025730D0A0065
:102FC0002A20E59BBAE4BBB6E5BA93E78988E69C7C
:102FD000AC203A205625642E25642E2564202853E3
:102FE000544D3332463478785F5374645065726957
:102FF00070685F447269766572290D0A00000000EE
:103000002A200D0A000000002A2A2A2A2A2A2A2A0F
:103010002A2A2A2A2A2A2A2A2A2A2A2A2A2A2A2A10
:103020002A2A2A2A2A2A2A2A2A2A2A2A2A2A2A2A00
:103030002A2A2A2A2A2A2A2A2A2A2A2A2A2A2A2AF0
:103040002A2A2A2A2A0A0D0029B1064A12680243AE
:10305000044B1A6004E0034A12688243014B1A6071
:10306000704700003038024029B1064A1268024316
:10307000044B1A6004E0034A12688243014B1A6051
:10308000704700003838024029B1064A12680243EE
:10309000044B1A6004E0034A12688243014B1A6031
:1030A000704700004038024029B1064A12680243C6
:1030B000044B1A6004E0034A12688243014B1A6011
:1030C0007047000044380240F0B50021002200247F
:1030D000022500260223324F3F6807F00C0121B180
:1030E000042905D0082937D105E02E4F076036E0C6
:1030F0002D4F076033E02A4F3F1F3F68C7F38056CC
:10310000274F3F1F3F6807F03F036EB1264FB7FBC5
:10311000F3F7DFF88CC0ACF1040CDCF800C0CCF3A2
:10312000881C07FB0CF40CE01E4FB7FBF3F7DFF82D
:1031300070C0ACF1040CDCF800C0CCF3881C07FBB9
:103140000CF4174F3F1F3F68C7F301477F1C7D00FA
:10315000B4FBF5F7076002E0124F076000BF00BF45
:103160000F4F3F6807F0F0010909104F7A5C0768BC
:10317000D74047600A4F3F6807F4E051890A0B4F78
:103180007A5C4768D7408760054F3F6807F4604125
:10319000490B064F7A5C4768D740C760F0BD000016
:1031A000083802400024F40000127A007000002069
:1031B0001CB501214020FFF747FF4FF480700090BD
:1031C00001208DF8040003208DF8050000208DF803
:1031D000060001208DF8070069460248FEF716F93F
:1031E0001CBD0000001802407047000010B54FF4ED
:1031F00080710248FEF777F910BD00000018024008
:1032000010B54FF480710248FEF76BF910BD000055
:103210000018024010B54FF4807000F021F801282A
:1032200005D1000200F00EF803A0FDF737F84FF4C7
:103230000030FEF72FF810BD414C41524D20412186
:103240000D0A000081B241F08001044A126802F0C8
:10325000800262EA0101014A116070470C280040B7
:1032600010B5014600200022054B1B68054C03EAFF
:1032700004020A4201D0012000E0002010BD00003D
:103280000C2800407F7F0100014908607047000062
:10329000382C014001460020034A12680A4201D03E
:1032A000012000E000207047342C014010B500F0F0
:1032B00025F810BD29B1064A12680243044B1A6072
:1032C00004E0034A12688243014B1A607047000011
:1032D0003C2C014010B50748006810F0C05F08D0D2
:1032E0000120054908604FF0C25102485830FDF7EF
:1032F000E7FE10BD006402402C00002010B54FF422
:103300008070FFF7C7FF50B10020254908704FF4C7
:103310008070FFF7B9FF01202249086037E00220E2
:10332000FFF7B8FF30B10220FFF7AEFF02201C49C3
:1033300008702CE00820FFF7ADFF30B10820FFF740
:10334000A3FF04201649087021E02020FFF7A2FF08
:1033500030B12020FFF798FF06201149087016E0D1
:103360001020FFF797FF30B11020FFF78DFF0520E9
:103370000B4908700BE04FF40070FFF78BFF30B182
:103380004FF40070FFF780FF072005490870002107
:103390004CF23A30FFF78EFF0148007810BD000074
:1033A0002400002028000020704700000CB50020F9
:1033B000019000903448006840F480303249086041
:1033C00000BF3148006800F4003000900198401CB4
:1033D0000190009818B90198B0F5A04FF1D12A4892
:1033E000006810F4003F02D00120009001E00020AE
:1033F00000900098012845D123484030006840F0F3
:1034000080502149403108602048006840F4404025
:103410001E4908601C48083000681B4908310860D4
:103420000846006840F4004008600846006840F420
:10343000A05008601648091F0860081F006840F087
:103440008070091F086000BF0F48006810F0007FFF
:10345000FAD040F205700F4908600B480830006848
:1034600020F003000849083108600846006840F071
:103470000200086000BF04480830006800F00C003B
:103480000828F8D10CBD0000003802400070004050
:1034900008544007003C024010B500F001F810BD90
:1034A00010B500F0EFFC1448006840B11248006805
:1034B000401E1149086002D1012010490870002403
:1034C00008E004EB44010E4A02EB810000F099FE93
:1034D000601CC4B2012CF4DB00F092FE09480078B5
:1034E000401CC0B2074908700A2803DB002008709E
:1034F00000F082FE10BD00003400002038000020E3
:103500003C2300203900002010B51548006840F425
:103510007000134908601348006840F00100114929
:10352000086000200F49083108600E4800680E4905
:1035300008400C4908600D48091D0860081F006814
:1035400020F48020091F0860002006490C31086023
:10355000FFF72CFF4FF0006001498039086010BD73
:1035600088ED00E000380240FFFFF6FE1030002436
:1035700010B500F053F810BD10B50221480700F057
:1035800078F858B10221480700F064F800220221BF
:10359000480700F07FF81B480068804704210807AF
:1035A00000F067F858B10421080700F053F8002232
:1035B0000421080700F06EF81348006880470821CE
:1035C000C80600F056F858B10821C80600F042F8C5
:1035D00000220821C80600F05DF80C48006880470A
:1035E0001021880600F045F858B11021880600F037
:1035F00031F800221021880600F04CF804480068D9
:10360000804710BD3C000020400000204400002006
:103610004800002010B5FFF7AFFF10BD10B5012125
:103620000A4800F026F801280FD10121074800F0D0
:1036300011F800220121054800F02CF80021034870
:1036400000F00BF802480068804710BD00400140C0
:103650004C000020CA430282704721B1028842F028
:103660000102028004E002884FF6FE731A400280D5
:10367000704730B50246002000230024158A05EA71
:103680000103958905EA010413B10CB1012000E0A2
:10369000002030BD1AB183890B43838102E0838906
:1036A0008B438381704710B500F06EF910BD01F4B3
:1036B0000072B2F5007F00D100BFCA43028070479C
:1036C00021B1828942F40052828104E082894DF660
:1036D000FF731A408281704702460020B1F5007FD7
:1036E00000D100BF13880B4201D0012000E0002070
:1036F000704770B502460024002300250020A1F584
:1037000010666A3E00D100BFC1F3421501F01F03ED
:10371000012606FA03F3012D02D19689334006E013
:10372000022D02D1168A334001E0968A33400C12F2
:10373000012606FA04F41688344013B10CB10120B6
:1037400000E0002070BDF0B50346002400260025EF
:103750000020A1F510676A3F00D100BF1846C1F3F1
:10376000421401F01F06012707FA06F5012C01D1CA
:103770000C3004E0022C01D1103000E014301AB1FA
:1037800007682F43076002E00768AF430760F0BD9A
:103790002DE9FF4705460E460024A14600BFA0467E
:1037A000B08900B100BF2C8A24F44054F08804434F
:1037B0002C82AC8941F20C608443B0883189084383
:1037C000718908430443AC81AC8A24F44074B08905
:1037D0000443AC826846FFF777FC2048854202D05C
:1037E0001F48854202D1DDF80C9001E0DDF8089019
:1037F000A88910F4004F08D009EBC90000EB0910AC
:1038000031684900B0FBF1F707E009EBC90000EBB4
:10381000091031688900B0FBF1F76420B7FBF0F0C4
:1038200004012009642101FB1078A88910F4004FDD
:1038300008D0322000EBC800B0FBF1F000F0070028
:10384000044308E0322000EB08106421B0FBF1F0E3
:1038500000F00F0004432C81BDE8FF8700100140F9
:103860000014014001468888C0F308007047C1F386
:10387000080282807047000000B587B0012148042B
:10388000FFF702FC01210846FFF7DEFB0C20059044
:1038900002208DF8180003208DF8190000208DF803
:1038A0001A0001208DF81B0005A91F48FDF7AEFD89
:1038B000072202211C48FDF7F1FD072203211A48C7
:1038C000FDF7ECFD0C20ADF80E004FF41650019002
:1038D0000020ADF80800ADF80A00ADF80C00ADF816
:1038E000100001A91148FFF753FF01210F48FFF70E
:1038F000E7FE40210D48FFF7DAFE012240F2255194
:103900000A48FFF720FF26208DF8000004208DF8DC
:10391000010000208DF8020001208DF803006846A8
:10392000FFF774FA07B000BD0000024000440040F9
:1039300010B50D480D4908600D4848600D48886075
:103940000D48C8600D4888610D48C8610D4808627F
:103950000C220549074800F0F2F90C2204490648F8
:1039600000F0EDF910BD0000582300208023002056
:10397000742300204823002064230020ED31000838
:1039800001320008E93100081CB540F225512A48EF
:10399000FFF7AFFEA8B12848FFF764FFC0B201905F
:1039A0002649C86800F0E1F9012804D12349C86814
:1039B000694600F0A5F92149C8689DF8041000F097
:1039C000E1F940F227711C48FFF793FEE8B11B496B
:1039D000886800F0C1F901280CD1002240F227715B
:1039E0001548FFF7B0FE012240F226611248FFF7AA
:1039F000AAFE1FE01149886801A900F081F99DF82D
:103A000004100D48FFF733FF14E040F226610A4826
:103A1000FFF76FFE70B10949886800F09DF9012831
:103A200008D1002240F226610348FFF78CFE0349CB
:103A3000C86980471CBD000000440040802300206E
:103A400000BFFEE72DE9F04104460E4617464FF051
:103A5000000836B1012E0CD0022E10D0032E17D143
:103A600015E004EB44000E4901EB80054FF00C0813
:103A70000EE00C4800EB04154FF0100808E004EBD2
:103A8000C400094901EB80054FF0240800E000BFA5
:103A900000BF424629463846FCF785FDBDE8F08167
:103AA00064440008D8480008C84E00082DE9F05FBB
:103AB0000746884691469A460026B3460025B9F146
:103AC000000F09D0B9F1010F09D0B9F1020F09D0E7
:103AD000B9F1030F0BD108E018261B4D07E0202693
:103AE0001A4D04E048261A4D01E0802600BF00BFB1
:103AF0004FF0000B23E0B01C0BFB00F084B20BF185
:103B000001001FFA80FB285DB8420BD1601C285CC5
:103B1000404507D1A01C84B2291932465046FCF713
:103B200042FD0DE0285DFF2809D1601C285CFF28BC
:103B300005D1FF2231465046FCF77AFD00E0DAE776
:103B400000BFBDE8F09F0000E47300089C7400080B
:103B5000F27500087047704780F31088704730385E
:103B60000A2801D201207047002070472DE9F04754
:103B70003F4C0646E07B38B13EA10020FFF7EBFF4B
:103B8000B00F3DD1032039E026F040400F3020F047
:103B90000307002E08DB3A463CA10020FFF7DAFFBE
:103BA00000F072FB0120E073B00F4FF000090BD062
:103BB000206861683844884206D9E07B00B384F805
:103BC0000F9000F069FB1BE03448056828686A68BC
:103BD000411B891AB94216D2054600680028F5D162
:103BE000E07B48B184F80F9000F056FBA3892CA12C
:103BF00000202268FFF7AFFFB00F01D100F0B8FB43
:103C00000020BDE8F0873AB35019296801602860A8
:103C100000F108054760206807442760A089401C20
:103C200080B2A081E17BD1B194F80E8084F80E902F
:103C3000824684F80F9000F02FFBB8F1000F04D0FB
:103C4000424622A10020FFF785FF53463A4625A1B0
:103C50000020FFF77FFF05E06F600835DBE7A07B02
:103C6000401CA0732E80A5F802902846C9E70000EA
:103C700088480020416C6C6F632C2052656375721C
:103C8000736976652063616C6C0A0000416C6C6F2F
:103C9000632025642062797465730A00204400085B
:103CA000416C6C6F632C204E6F206D656D6F727967
:103CB00020557365642025642062797465732C2017
:103CC000256420626C6F636B730A000020495251B7
:103CD0005F416C6C6F6320256420626C6F636B7353
:103CE0000A00000020557365642025642062797401
:103CF00065732028256420626C6F636B73290A004A
:103D00002DE9F04104460E466568FCF79FFA074628
:103D10002068A8420ED0E068405D3070681C0546FF
:103D2000A168884201DB002000E028466060012095
:103D3000BDE8F0813846FCF78DFA0020F8E703462D
:103D400002B111B96FF0150070470020186058607B
:103D5000D9609A6000BFF7E70146D1E900029042BE
:103D600001D1012070470020FCE70146D1E90003A2
:103D7000C01A421C12B18868904201D101207047DC
:103D80000020FCE72DE9F04104460E462568FCF7CB
:103D90005DFA07466068401EA84213D0A068401E26
:103DA000A84208D1606868B1E068465500202060EC
:103DB0000120BDE8F081E06846552068401C206085
:103DC0000120F6E73846FCF745FA0020F1E700004D
:103DD000034890F84101024981F840017047000012
:103DE000BC21002001B5009800B908BD0098012849
:103DF00001D1022000900120FFF7AEFE0949009892
:103E00000860002008490870FFF7A6FE06E000F0F1
:103E100037F805480078012800D100E0F7E700BF37
:103E200000BFE2E73400002038000020F0B5034670
:103E300000224FF0E02675690F4E36680F4FB6FB33
:103E4000F7F606FB03F400BF4FF0E026B16910E07F
:103E50004FF0E026B06988420BD0884202D20E1A99
:103E6000324402E02E1A0E4432440146A24200D3EC
:103E700000E0EDE700BFF0BD5C00002040420F0015
:103E80007047000007480068401C06490860084663
:103E900000686FF00041884202D1002001490860AB
:103EA000704700003000002010B54FF44070FEF75E
:103EB000E9FF00F0B3F800F04BF800F027F800F04D
:103EC00007F800F0DDF800F047F800F007F810BD43
:103ED00010B5FEF769FBFEF733FB10BD10B5FEF71A
:103EE00011FCFEF769FDFDF702FBFEF7BDFB0120AB
:103EF000054908604FF0000000F0D6F84FF6FF705B
:103F0000FEF7CEFB10BD0000BC8240421CB5012173
:103F10002020FFF799F8002000F04EF9012000F072
:103F20004BF94FF4C060009001208DF80400002090
:103F30008DF8060001208DF8070002208DF805009D
:103F400069460248FDF762FA1CBD000000140240F9
:103F500000B5FFF73DFF00BD00B587B00121084661
:103F6000FFF772F801211020FFF79EF807220921C0
:103F70001948FDF793FA07220A211748FDF78EFA30
:103F80004FF4C060019002208DF808008DF8090000
:103F900000208DF80A0001208DF80B0001A90E48C1
:103FA000FDF734FA4FF4E13003900020ADF8100033
:103FB000ADF81200ADF81400ADF818000C20ADF803
:103FC000160003A90548FFF7E3FB01210348FFF7AB
:103FD00077FB07B000BD0000000002400010014068
:103FE000002016E0002100EB40020B4B03EB8202A5
:103FF000516000EB400203EB8202916000EB400253
:1040000003EB8202517000EB400203F82210411CC6
:10401000C8B20128E6DB70473C23002030B5FFF72B
:10402000DFFF144800684FF47A72B0FBF2F1481ECB
:10403000B0F1807F00D31BE0481E4FF0E0225061BA
:1040400050170F22002807DA13071D0E0A4B00F045
:104050000F04241F1D5503E013071C0E074B1C54AF
:1040600000BF00204FF0E02290610720106100BFE8
:1040700030BD00005C00002018ED00E000E400E02E
:1040800010B5FFF7F9FBFFF793F8FFF751FC10BDF0
:1040900010B5002404E02046FEF7DAF9601CC4B233
:1040A000042CF8DB10BD000010B504460022082CDB
:1040B0001CD2DFE804F00406090C0F12151800BF2B
:1040C00014E042F0800211E042F040020EE042F0C3
:1040D000C0020BE042F0200208E042F0600205E07E
:1040E00042F0A00202E042F0E00200BF00BF4FF445
:1040F0005850FEF771FE1046FEF766FE12F0200FD4
:1041000007D04FF448702B4908804FF4F070488076
:1041100006E04FF4F070274908804FF4487048805B
:10412000244804714FF42850FEF756FE0020FEF795
:104130004BFE42F60120FEF74FFE0020FEF744FE44
:1041400042F60220FEF748FE1A490988491EC1F3CB
:104150000F20FEF739FE42F60320FEF73DFE15491B
:104160000978491EC8B2FEF72FFE4FF42C50FEF717
:1041700033FE0020FEF728FE42F60130FEF72CFE4B
:104180000020FEF721FE42F60230FEF725FE094927
:104190004988491EC1F30F20FEF716FE42F6033090
:1041A000FEF71AFE03498978491EC8B2FEF70CFED5
:1041B00010BD00005400002002280ADA20B94FF494
:1041C0000071044A118004E0012802D18102014AF1
:1041D00011807047181402400649C97A054A5054A4
:1041E0001146C97A491CC9B2D1720A2901DB0021E2
:1041F000D17270473023002010B5FFF749FF10BD82
:104200007047416851B14168491E416006D10121A2
:1042100041700178012901D1816841607047000037
:1042200070B504460D46E1B20548FFF720FB00BF1C
:1042300080210348FFF750FA0028F9D0204670BDCE
:10424000001001400E4910B508380968002203E04B
:104250000A460968002912D08142F9D109484C6800
:1042600003681B1B036012B10968116001E00022A2
:104270004A608189491E8181817B491E817310BDFD
:1042800020440008884800204FF000510148016098
:104290007047000084E100E04FF0005001490860E1
:1042A0007047000004E100E00EB5FFF7FDFDFEF7EA
:1042B000F5FD01208DF804004FF6FF70ADF8060003
:1042C0001F20ADF808000020ADF80A001F20009064
:1042D00008480288282300210846FEF7D4FB01ABDA
:1042E00005A20A210846FEF7CBFA01E0FFF7C8FD58
:1042F000FCE700005400002053544D33322D563556
:10430000BFAAB7A2B0E520202856312E3565290076
:10431000084A30B413785478591C01F01F018C42BC
:1043200005D002EB83035860117030BC704730BC7D
:10433000FFF788BF0448002001464FF4006040EAC0
:104340008110401C094B1861002200BF06E007489D
:10435000006910F0010F00D103E0521CB2F5A02F4C
:10436000F5D300BF0148406980B270470080024029
:1043700007280CD2DFE800F00405060708090A0048
:1043800005E004E003E002E001E000E000BF00BF60
:1043900000BFFEE74FF04070E1EE100A70470000EA
:1043A0002A2A2A2A2A2A2A2A2A2A2A2A2A2A2A2A6D
:1043B0002A2A2A2A2A2A2A2A2A2A2A2A2A2A2A2A5D
:1043C0002A2A2A2A2A2A2A2A2A2A2A2A2A2A2A2A4D
:1043D0002A2A2A2A2A2A2A2A2A2A2A2A2A200D0A84
:1043E00000000000C0A80164C0A80101FFFFFF0099
:1043F000C2190281C2190282000000000000000000
:1044000000000000000000000000000000000000AC
:10441000000000000000000000000000000000009C
:1044200090000020002000000A64023900000020F3
:10443000902000200A96040200000000CF7B0008B4
:10444000000000001C210020020000003421002098
:1044500002052800020014000A007800B4051C11AF
:104460000700000000000000000000000000000045
:10447000000000003F40000000000000000030008D
:10448000400030004000000009000BC03D000BC0A0
:104490003D00090018C024407FE022403180000028
:1044A000180024C01B000D803240018003801C4096
:1044B00027401C8007400040100060000000000002
:1044C000000000000000000000001F80204040208D
:1044D0000000402020401F8000000000090006006E
:1044E0001F80060009000000040004003F80040053
:1044F0000400000000100060000000000000000048
:104500000400040004000400040000000000004057
:104510000000000000000000002001C0060038007C
:10452000400000001F802040204020401F800000ED
:10453000000010403FC000400000000018C02140B3
:104540002240244018400000108020402440244095
:104550001B80000002000D0011003FC00140000060
:104560003C80244024402440238000001F802440BD
:1045700024403440038000003000200027C0380071
:10458000200000001B802440244024401B800000A9
:104590001C0022C0224022401F80000000000000BA
:1045A000084000000000000000000000046000005F
:1045B00000000000000004000A00110020804040BC
:1045C000090009000900090009000000000040403E
:1045D000208011000A00040018002000234024005D
:1045E000180000001F802040274029401F40000085
:1045F000004007C039000F0001C0004020403FC00C
:10460000244024401B8000001F8020402040204088
:104610003080000020403FC0204020401F8000002C
:1046200020403FC024402E4030C0000020403FC00A
:1046300024402E00300000000F0010802040224057
:104640003380020020403FC0040004003FC02040EF
:10465000204020403FC0204020400000006020203B
:1046600020203FC02000200020403FC024400B00FD
:1046700030C0204020403FC020400040004000C0EB
:104680003FC03C0003C03C003FC0000020403FC092
:104690000C4023003FC020001F80204020402040CD
:1046A0001F80000020403FC024402400180000006C
:1046B0001F802140214020E01FA0000020403FC07B
:1046C0002440260019C0004018C024402440224045
:1046D00031800000300020403FC02040300000000A
:1046E00020003F80004000403F80200020003E002E
:1046F00001C0070038002000380007C03C0007C098
:1047000038000000204039C0060039C020400000B9
:104710002000384007C0384020000000304021C051
:104720002640384020C00000000000007FE040200C
:1047300040200000000070000C00038000400000DA
:104740000000402040207FE000000000000020002A
:1047500040002000000000000010001000100010B9
:1047600000100010000000004000000000000000E9
:10477000000002800540054003C0004020003FC00B
:104780000440044003800000000003800440044013
:104790000640000000000380044024403FC0004069
:1047A0000000038005400540034000000000044075
:1047B0001FC0244024402000000002E005500550A6
:1047C0000650042020403FC00440040003C00040C5
:1047D0000000044027C0004000000000001000104E
:1047E000041027E00000000020403FC00140070007
:1047F00004C00440204020403FC000400040000072
:1048000007C0040007C0040003C00000044007C044
:104810000440040003C00040000003800440044042
:1048200003800000041007F00450044003800000DF
:10483000000003800440045007F00010044007C04B
:10484000024004000400000000000640054005404E
:1048500004C00000000004001F800440004000006D
:10486000040007800040044007C000400400070027
:1048700004C0018006000400060001C0070001C05A
:1048800006000000044006C0010006C0044000000D
:104890000410071004E0018006000400000004403A
:1048A00005C00640044000000000000004007BE05A
:1048B00040200000000000000000FFF000000000A9
:1048C000000040207BE00400000000004000800069
:1048D0004000200020004000000000000000000018
:1048E00000000000000000000000000000001FCCDD
:1048F000000C000000000000000008003000600014
:104900000800300060000000022003FC1E2002208E
:1049100003FC1E200220000000000E1811043FFFBF
:1049200010840C78000000000F0010840F3800C0C5
:10493000077818840078000000780F8410C41124D0
:104940000E9800E400840008080068007000000071
:10495000000000000000000000000000000007E070
:10496000181820044002000000004002200418181B
:1049700007E00000000000000240024001800FF04C
:1049800001800240024000000080008000800FF89B
:1049900000800080008000000001000D000E00007B
:1049A0000000000000000000000000800080008087
:1049B00000800080008000800000000C000C0000DF
:1049C0000000000000000000000000060018006069
:1049D0000180060018002000000007F008081004FD
:1049E0001004080807F000000000080408041FFC79
:1049F000000400040000000000000E0C101410243D
:104A0000104411840E0C000000000C181004110456
:104A1000110412880C700000000000E00320042440
:104A200008241FFC0024000000001F9810841104BB
:104A30001104108810700000000007F008881104AD
:104A4000110418880070000000001C00100010FC09
:104A500013001C001000000000000E3811441084E8
:104A6000108411440E38000000000700088C104428
:104A70001044088807F00000000000000000030C4C
:104A8000030C00000000000000000000000101060F
:104A90000000000000000000000000800140022033
:104AA0000410080810040000022002200220022046
:104AB0000220022002200000000010040808041058
:104AC000022001400080000000000E001200100CC7
:104AD000106C10800F00000003E00C1813E4142485
:104AE00017C4082807D000000004003C03C41C4081
:104AF000074000E4001C000410041FFC1104110412
:104B000011040E880070000003E00C18100410045B
:104B1000100410081C10000010041FFC10041004E6
:104B20001004080807F0000010041FFC1104110411
:104B300017C410040818000010041FFC1104110011
:104B400017C010000800000003E00C181004100447
:104B500010441C780040000010041FFC10840080EA
:104B6000008010841FFC10040000100410041FFCBF
:104B700010041004000000000003000110011001E7
:104B80001FFE10001000000010041FFC1104038021
:104B90001464181C1004000010041FFC100400040E
:104BA00000040004000C000010041FFC1F0000FCA7
:104BB0001F001FFC1004000010041FFC0C04030065
:104BC00000E010181FFC100007F008081004100483
:104BD0001004080807F0000010041FFC1084108067
:104BE000108010800F00000007F008181024102417
:104BF000101C080A07F2000010041FFC1104110029
:104C000011C011300E0C000400000E1C11041084A1
:104C1000108410441C3800001800100010041FFC01
:104C2000100410001800000010001FF81004000409
:104C3000000410041FF8100010001E0011E0001CFA
:104C4000007013801C0010001FC0103C00E01F000B
:104C500000E0103C1FC000001004180C163401C006
:104C600001C01634180C100410001C00130400FCC2
:104C700013041C00100000000804101C10641084B1
:104C800013041C04101800000000000000007FFE48
:104C90004002400240020000000030000C0003808F
:104CA0000060001C000300000000400240024002BF
:104CB0007FFE000000000000000000002000400017
:104CC0004000400020000000000100010001000140
:104CD0000001000100010001000040004000200030
:104CE00000000000000000000000009801240144C2
:104CF0000144014400FC000410001FFC0088010472
:104D000001040088007000000000007000880104A9
:104D10000104010400880000000000700088010404
:104D2000010411081FFC0004000000F801440144C4
:104D30000144014400C800000000010401040FFC0C
:104D40001104110411001800000000D601290129E6
:104D5000012901C90106000010041FFC00840100A4
:104D60000100010400FC000400000104190419FC06
:104D70000004000400000000000000030001010125
:104D8000190119FE0000000010041FFC002400405F
:104D900001B4010C010400000000100410041FFC09
:104DA0000004000400000000010401FC01040100F3
:104DB00001FC0104010000FC010401FC008401006D
:104DC0000100010400FC0004000000F801040104DB
:104DD0000104010400F80000010101FF0085010445
:104DE00001040088007000000000007000880104C9
:104DF0000104010501FF00010104010401FC00841C
:104E00000104010001800000000000CC0124012405
:104E1000012401240198000000000100010007F8AE
:104E20000104010400000000010001F80004000476
:104E30000004010801FC0004010001800170000C65
:104E4000001001600180010001F0010C003001C080
:104E50000030010C01F0010000000104018C00741D
:104E60000170018C01040000010101810171000E3B
:104E7000001801600180010000000184010C013470
:104E800001440184010C000000000000000000004B
:104E900001003EFC40024002000000000000000053
:104EA000FFFF0000000000000000400240023EFC46
:104EB0000100000000000000000060008000800091
:104EC0004000400020002000000000000000000022
:104ED00000000000000000000000000000000000D2
:104EE00000000000000000000000000000000000C2
:104EF00000000000000000000000000F80380FFEDE
:104F0000380F8038000000000000000000000000A2
:104F10000000000000000100000600000C00003846
:104F200000003100000600000C00003800003000D6
:104F3000000000000000000061800067F807F980B1
:104F40000061800061800061800061800067F80777
:104F5000F98000618000000000000000000001C036
:104F6000E003E0F00630080418081FFFFE040E08F6
:104F70000787F00381E000000000000001F0000658
:104F80000C00040408060C7001F9C0000E00003B80
:104F9000E000EC18070808040C180003E00000000B
:104FA0000001E00007F003F818041C0804170807C4
:104FB000E1D003C0E00023B0003C0800200800005E
:104FC000100000000000000100003100003200006D
:104FD0001C000000000000000000000000000000B5
:104FE00000000000000000000000000000000000C1
:104FF00000000000000000007F0001FFC00780F0FB
:105000000C00181000042000020000000000002026
:1050100000021000040C00180780F001FFC0007FA0
:105020000000000000000000000000000000000080
:10503000000000004200006600006600003C000026
:10504000180003FFC0001800003C00006600006666
:1050500000004200000000000800000800000800F6
:1050600000080000080001FFC00008000008000060
:105070000800000800000800000000000001000017
:105080003100003200001C000000000000000000A1
:105090000000000000000000000000000000000010
:1050A00008000008000008000008000008000008D0
:1050B00000000800000800000800000800000000D0
:1050C0000000000000000000380000380000380038
:1050D00000000000000000000000000000000000D0
:1050E0000000000000000000000600001C0000702E
:1050F000000180000E0000380000C0000700001C06
:105100000000300000000000000000007F8001FF70
:10511000E003807006001804000804000806001868
:1051200003807001FFE0007F8000000000000000AD
:10513000000001000801000801000803FFF807FF54
:10514000F80000080000080000080000000000004F
:1051500000000001C03802C058040098040118047F
:105160000218040418061C1803F81801E0F80000DF
:105170000000000000000001C0E003C0F0040008CF
:1051800004080804080806180803F41801E7F000EA
:1051900001E0000000000000000000000300000D1E
:1051A0000000110000610000810803010807FFF8FA
:1051B0000FFFF800010800010800000000000000D7
:1051C00000E007FCD00608080610080610080610C4
:1051D00008061838060FF00607C00000000000009F
:1051E000000000003F8001FFE00384300208180443
:1051F0001008041008041008071810030FF0000727
:10520000C000000000000000000003C00007000014
:105210000600000600F80607F806180006E000077A
:10522000000006000000000000000001E1E003F7BC
:10523000F0063410041808041808040C08040C08BC
:1052400006161803F3F001C1E000000000000000A2
:10525000F80003FC300306380402080402080402C4
:10526000080404100308F001FFC0007F00000000E4
:10527000000000000000000000000000000000002E
:105280007038007038007038000000000000000026
:10529000000000000000000000000000000000000E
:1052A00000000000301A00301C0000000000000068
:1052B00000000000000000000000000000000008E6
:1052C0000000140000220000410000808001004026
:1052D0000200200400100800080000000000000088
:1052E00021000021000021000021000021000021F8
:1052F000000021000021000021000021000000002A
:105300000000000000000800080400100200200156
:1053100000400080800041000022000014000008CE
:105320000000000000000003C00004C000040000F2
:10533000080038080F380808380810000C3000073B
:10534000E00003C000000000000000003F8000FFFC
:10535000E0038070020F1006708804C08804830880
:10536000047F8802C09003012000FE400000080076
:1053700000180001F8003E0801C20007020007E221
:105380000000FE00001FC80001F8000038000008FF
:1053900004000807FFF807FFF804080804080804D9
:1053A000080804080806180803F41801E7F00001CB
:1053B000E0000000000000003F8001FFE00380707B
:1053C0000200180400080400080400080400100685
:1053D00000200780C000000004000807FFF807FF56
:1053E000F804000804000804000804001802001073
:1053F00003807001FFE0007F8000000004000807C8
:10540000FFF807FFF804080804080804080804085F
:1054100008043E08040008060018010060000000AF
:1054200004000807FFF807FFF80408080408000450
:105430000800040800043E00060000060000018089
:1054400000000000000000003F8001FFE0038070CA
:105450000600180400080402080402080203F0070A
:1054600083F000020000020004000807FFF807FFB5
:10547000F804080800080000080000080000080000
:1054800004080807FFF807FFF80400080000000000
:10549000000004000804000804000807FFF807FFE4
:1054A000F8040008040008040008000000000000E0
:1054B00000000000000600000700000104000104D5
:1054C000000104000307FFFE07FFFC0400000400C6
:1054D0000004000004000807FFF807FFF8040C08A8
:1054E000001800003E0004C7800503C80600F80449
:1054F000003804001800000804000807FFF807FF40
:10550000F804000800000800000800000800000877
:1055100000000800001800006000000004000807F8
:10552000FFF807800807FC00007FC00003F80007B1
:10553000C000780007800807FFF807FFF80400089C
:1055400004000807FFF807000803C00000E000009F
:105550003800001E000007000001C00400F007FF33
:10556000F8040000000000007F8001FFE00380706D
:1055700006001804000804000806001803003001A3
:10558000FFE0007F8000000004000807FFF807FF2D
:10559000F8040408040400040400040400040400E3
:1055A000060C0003F80001F00000000000000000FD
:1055B0007F8001FFE00380700600880400880400FB
:1055C000C806003C03003E01FFE6007F84000000A7
:1055D00004000807FFF807FFF8040808040800049F
:1055E0000C00040F00040BC00610F003F03801E0BB
:1055F0000800000800000001E0F803F03006301059
:10560000041808041808040C08040C080206180200
:1056100007F00781E00000000180000600000400A0
:105620000004000004000807FFF807FFF804000862
:1056300004000004000006000001800004000007D0
:10564000FFE007FFF0040018000008000008000059
:105650000800000800000804001007FFE004000034
:1056600004000006000007E00007FE00041FE00041
:1056700001F80000380001E0043E0007C000060009
:105680000004000004000007E00007FFC0041FF84A
:105690000007C007F80007FF80043FF80007C004B8
:1056A000F8000700000400000000000400080600E5
:1056B0001807C07805F1C8003E00001F800463E8A9
:1056C0000780F80600180400080000000400000627
:1056D000000007800007E008047C08001FF80007AE
:1056E000F800180804E008070000060000040000A5
:1056F0000000000100080600380400F80403E80474
:105700000F08047C0805F00807C00807001804000B
:105710006000000000000000000000000000000029
:105720000000003FFFFE20000220000220000220B7
:10573000000220000200000000000000000008003D
:105740000007000000C0000038000006000001C093
:1057500000003000000E000001000000000000000A
:105760000000200002200002200002200002200091
:10577000023FFFFE000000000000000000000000EB
:1057800000000000000000000008000010000030D1
:1057900000002000003000001000000800000000A1
:1057A00000000000000001000001000001000001F5
:1057B00000000100000100000100000100000100E4
:1057C00000010000010000010000000000000000D6
:1057D0000020000020000010000010000000000069
:1057E00000000000000000000000000000000000B9
:1057F00000F00019F8001B180022080026080024F9
:1058000008002410003FF8001FF8000008000018EE
:1058100000000004000007FFF80FFFF00018180058
:105820001008002008002008003018001FF0000FAA
:10583000C00000000000000007C0001FF00018308A
:10584000002008002008002008003C08001C100070
:1058500000600000000000000000000007C0001F02
:10586000F00038180020080020080020080410105C
:1058700007FFF80FFFF0000010000000000000001C
:1058800000000007C0001FF00012300022180022A4
:1058900008002208003208001E10000E2000000040
:1058A00000000000200000200800200801FFF8038D
:1058B000FFF8062008042008042008072000030041
:1058C0000000000000000000000E000E6E001FF33C
:1058D0000031B10020B10020B1003191001F130050
:1058E0002E1E00200E00300000000004000807FFFC
:1058F000F80FFFF80010080020000020000020082A
:10590000003FF8001FF80000080000000000000041
:105910000000002008002008002008063FF8063F8D
:10592000F800000800000800000800000000000067
:105930000000000000000000030000030020010040
:105940002001002003063FFE063FFC00000000008F
:105950000000000000000004000807FFF80FFFF837
:10596000000188000300002FC00038F80020380034
:1059700020080000080000000000000000000400F3
:105980000804000804000807FFF80FFFF8000008EB
:1059900000000800000800000000000000200800CF
:1059A0003FF8003FF8001008002000003FF8003FDB
:1059B000F8001008002000003FF8003FF800000841
:1059C000000000002008003FF8003FF80010080029
:1059D0001000002000002008003FF8001FF8000021
:1059E000080000000000000007C0000FF0001830A1
:1059F000003008002008002008003008001830009F
:105A00000FF00007C0000000000000002001003F70
:105A1000FF003FFF001011002009002008002008AF
:105A2000003038001FF0000FC00000000000000030
:105A300007C0001FF00038180020080020080020D0
:105A400009001011001FFF003FFF000001000000CF
:105A5000002008002008002008003FF8003FF80060
:105A60000808001008002008002000003000003066
:105A700000000000000000000000000C78001E186C
:105A80000033080023080021080021880021980025
:105A900030F000386000000000000000200000200E
:105AA0000000200000FFF003FFF80020080020089D
:105AB000002008000030000000000000000000008E
:105AC0002000003FF0007FF80000180000080000F0
:105AD00008002010003FF8007FF0000010000000D8
